{
  "contractName": "IoTDataContract",
  "abi": [
    {
      "inputs": [],
      "name": "perform_transactions",
      "outputs": [],
      "stateMutability": "nonpayable",
      "type": "function"
    }
  ],
  "bytecode": "0x6080604052348015600f57600080fd5b50606d80601d6000396000f3fe6080604052348015600f57600080fd5b506004361060285760003560e01c8063ff0c51ba14602d575b600080fd5b60336035565b005b56fea26469706673582212207a0e76ccdefca8a9d47f67a88c71b76f9758c43c48ce9943d67cce502e4aa99764736f6c634300080a0033",
  "immutableReferences": {},
  "source": "pragma solidity >=0.4.22 <0.9.0;\r\n    contract IoTDataContract {\r\n    \r\n    \r\n    function perform_transactions() public{\r\n       \r\n    }\r\n        \r\n}\r\n",
  "sourcePath": "E:\\MAJORPROJECT\\BlockchainIIoT\\BlockchainIIoT-Truffle\\contracts\\IoTDataContract.sol",
  "compiler": {
    "name": "solc",
    "version": "0.8.10+commit.fc410830.Emscripten.clang"
  },
  "schemaVersion": "3.4.16",
  "updatedAt": "2024-05-01T12:44:47.910Z",
  "networkType": "ethereum",
  "devdoc": {
    "kind": "dev",
    "methods": {},
    "version": 1
  },
  "userdoc": {
    "kind": "user",
    "methods": {},
    "version": 1
  }
}